{
  "_format": "hh-sol-artifact-1",
  "contractName": "NexaEHR",
  "sourceName": "contracts/NexaEHR.sol",
  "abi": [
    {
      "inputs": [
        {
          "internalType": "bytes32",
          "name": "hospitalPublicKey",
          "type": "bytes32"
        },
        {
          "internalType": "bytes32",
          "name": "oraclePublicKey1",
          "type": "bytes32"
        },
        {
          "internalType": "bytes32",
          "name": "oraclePublicKey2",
          "type": "bytes32"
        }
      ],
      "stateMutability": "nonpayable",
      "type": "constructor"
    },
    {
      "anonymous": false,
      "inputs": [
        {
          "indexed": false,
          "internalType": "address",
          "name": "newHospital",
          "type": "address"
        }
      ],
      "name": "HospitalUpdated",
      "type": "event"
    },
    {
      "anonymous": false,
      "inputs": [
        {
          "indexed": true,
          "internalType": "bytes16",
          "name": "requestId",
          "type": "bytes16"
        },
        {
          "indexed": true,
          "internalType": "bytes32",
          "name": "requesterPublicKey",
          "type": "bytes32"
        },
        {
          "components": [
            {
              "internalType": "enum IEHRSystem.Role",
              "name": "role",
              "type": "uint8"
            },
            {
              "internalType": "bytes",
              "name": "encryptedKeyShare",
              "type": "bytes"
            },
            {
              "internalType": "bytes32",
              "name": "ephemeralPublicKey",
              "type": "bytes32"
            },
            {
              "internalType": "bytes12",
              "name": "nonce",
              "type": "bytes12"
            },
            {
              "internalType": "bytes16",
              "name": "authTag",
              "type": "bytes16"
            }
          ],
          "indexed": false,
          "internalType": "struct IEHRSystem.EncryptedShare[2]",
          "name": "encryptedKeyShares",
          "type": "tuple[2]"
        }
      ],
      "name": "KeySharesRequested",
      "type": "event"
    },
    {
      "anonymous": false,
      "inputs": [
        {
          "indexed": true,
          "internalType": "bytes16",
          "name": "requestId",
          "type": "bytes16"
        },
        {
          "components": [
            {
              "internalType": "enum IEHRSystem.Role",
              "name": "role",
              "type": "uint8"
            },
            {
              "internalType": "bytes",
              "name": "encryptedKeyShare",
              "type": "bytes"
            },
            {
              "internalType": "bytes32",
              "name": "ephemeralPublicKey",
              "type": "bytes32"
            },
            {
              "internalType": "bytes12",
              "name": "nonce",
              "type": "bytes12"
            },
            {
              "internalType": "bytes16",
              "name": "authTag",
              "type": "bytes16"
            }
          ],
          "indexed": false,
          "internalType": "struct IEHRSystem.EncryptedShare[1]",
          "name": "reEncryptedKeyShare",
          "type": "tuple[1]"
        },
        {
          "indexed": false,
          "internalType": "bool",
          "name": "isSuccess",
          "type": "bool"
        }
      ],
      "name": "KeySharesResponse",
      "type": "event"
    },
    {
      "anonymous": false,
      "inputs": [
        {
          "indexed": false,
          "internalType": "address",
          "name": "patient",
          "type": "address"
        }
      ],
      "name": "PatientAdded",
      "type": "event"
    },
    {
      "anonymous": false,
      "inputs": [
        {
          "indexed": false,
          "internalType": "address",
          "name": "physician",
          "type": "address"
        }
      ],
      "name": "PhysicianAdded",
      "type": "event"
    },
    {
      "inputs": [
        {
          "internalType": "bytes32",
          "name": "publicKey",
          "type": "bytes32"
        }
      ],
      "name": "addPatient",
      "outputs": [],
      "stateMutability": "nonpayable",
      "type": "function"
    },
    {
      "inputs": [
        {
          "internalType": "address",
          "name": "physicianAddress",
          "type": "address"
        },
        {
          "internalType": "bytes32",
          "name": "publicKey",
          "type": "bytes32"
        }
      ],
      "name": "addPhysician",
      "outputs": [],
      "stateMutability": "nonpayable",
      "type": "function"
    },
    {
      "inputs": [
        {
          "internalType": "address",
          "name": "_patientAddress",
          "type": "address"
        },
        {
          "components": [
            {
              "internalType": "bytes",
              "name": "contentId",
              "type": "bytes"
            },
            {
              "components": [
                {
                  "internalType": "enum IEHRSystem.Role",
                  "name": "role",
                  "type": "uint8"
                },
                {
                  "internalType": "bytes",
                  "name": "encryptedKeyShare",
                  "type": "bytes"
                },
                {
                  "internalType": "bytes32",
                  "name": "ephemeralPublicKey",
                  "type": "bytes32"
                },
                {
                  "internalType": "bytes12",
                  "name": "nonce",
                  "type": "bytes12"
                },
                {
                  "internalType": "bytes16",
                  "name": "authTag",
                  "type": "bytes16"
                }
              ],
              "internalType": "struct IEHRSystem.EncryptedShare[5]",
              "name": "encryptedKeyShares",
              "type": "tuple[5]"
            },
            {
              "internalType": "bytes12",
              "name": "nonce",
              "type": "bytes12"
            },
            {
              "internalType": "bytes16",
              "name": "authTag",
              "type": "bytes16"
            }
          ],
          "internalType": "struct IEHRSystem.Record",
          "name": "_record",
          "type": "tuple"
        }
      ],
      "name": "addRecord",
      "outputs": [],
      "stateMutability": "nonpayable",
      "type": "function"
    },
    {
      "inputs": [
        {
          "internalType": "address",
          "name": "_patient",
          "type": "address"
        },
        {
          "internalType": "address",
          "name": "_physician",
          "type": "address"
        }
      ],
      "name": "getAgents",
      "outputs": [
        {
          "components": [
            {
              "internalType": "enum IEHRSystem.Role",
              "name": "role",
              "type": "uint8"
            },
            {
              "internalType": "bool",
              "name": "isActive",
              "type": "bool"
            },
            {
              "internalType": "bytes32",
              "name": "publicKey",
              "type": "bytes32"
            }
          ],
          "internalType": "struct IEHRSystem.Agent[]",
          "name": "",
          "type": "tuple[]"
        }
      ],
      "stateMutability": "view",
      "type": "function"
    },
    {
      "inputs": [
        {
          "internalType": "address",
          "name": "_patientAddress",
          "type": "address"
        }
      ],
      "name": "getLatestRecord",
      "outputs": [
        {
          "components": [
            {
              "internalType": "bytes",
              "name": "contentId",
              "type": "bytes"
            },
            {
              "components": [
                {
                  "internalType": "enum IEHRSystem.Role",
                  "name": "role",
                  "type": "uint8"
                },
                {
                  "internalType": "bytes",
                  "name": "encryptedKeyShare",
                  "type": "bytes"
                },
                {
                  "internalType": "bytes32",
                  "name": "ephemeralPublicKey",
                  "type": "bytes32"
                },
                {
                  "internalType": "bytes12",
                  "name": "nonce",
                  "type": "bytes12"
                },
                {
                  "internalType": "bytes16",
                  "name": "authTag",
                  "type": "bytes16"
                }
              ],
              "internalType": "struct IEHRSystem.EncryptedShare[5]",
              "name": "encryptedKeyShares",
              "type": "tuple[5]"
            },
            {
              "internalType": "bytes12",
              "name": "nonce",
              "type": "bytes12"
            },
            {
              "internalType": "bytes16",
              "name": "authTag",
              "type": "bytes16"
            }
          ],
          "internalType": "struct IEHRSystem.Record",
          "name": "",
          "type": "tuple"
        }
      ],
      "stateMutability": "view",
      "type": "function"
    },
    {
      "inputs": [
        {
          "internalType": "uint8",
          "name": "index",
          "type": "uint8"
        }
      ],
      "name": "getOracle",
      "outputs": [
        {
          "components": [
            {
              "internalType": "enum IEHRSystem.Role",
              "name": "role",
              "type": "uint8"
            },
            {
              "internalType": "bool",
              "name": "isActive",
              "type": "bool"
            },
            {
              "internalType": "bytes32",
              "name": "publicKey",
              "type": "bytes32"
            }
          ],
          "internalType": "struct IEHRSystem.Agent",
          "name": "",
          "type": "tuple"
        }
      ],
      "stateMutability": "view",
      "type": "function"
    },
    {
      "inputs": [
        {
          "internalType": "address",
          "name": "_patientAddress",
          "type": "address"
        },
        {
          "internalType": "uint32",
          "name": "_recordNumber",
          "type": "uint32"
        }
      ],
      "name": "getRecord",
      "outputs": [
        {
          "components": [
            {
              "internalType": "bytes",
              "name": "contentId",
              "type": "bytes"
            },
            {
              "components": [
                {
                  "internalType": "enum IEHRSystem.Role",
                  "name": "role",
                  "type": "uint8"
                },
                {
                  "internalType": "bytes",
                  "name": "encryptedKeyShare",
                  "type": "bytes"
                },
                {
                  "internalType": "bytes32",
                  "name": "ephemeralPublicKey",
                  "type": "bytes32"
                },
                {
                  "internalType": "bytes12",
                  "name": "nonce",
                  "type": "bytes12"
                },
                {
                  "internalType": "bytes16",
                  "name": "authTag",
                  "type": "bytes16"
                }
              ],
              "internalType": "struct IEHRSystem.EncryptedShare[5]",
              "name": "encryptedKeyShares",
              "type": "tuple[5]"
            },
            {
              "internalType": "bytes12",
              "name": "nonce",
              "type": "bytes12"
            },
            {
              "internalType": "bytes16",
              "name": "authTag",
              "type": "bytes16"
            }
          ],
          "internalType": "struct IEHRSystem.Record",
          "name": "",
          "type": "tuple"
        }
      ],
      "stateMutability": "view",
      "type": "function"
    },
    {
      "inputs": [
        {
          "internalType": "address",
          "name": "_patientAddress",
          "type": "address"
        }
      ],
      "name": "getRecordCount",
      "outputs": [
        {
          "internalType": "uint32",
          "name": "",
          "type": "uint32"
        }
      ],
      "stateMutability": "view",
      "type": "function"
    },
    {
      "inputs": [
        {
          "internalType": "bytes16",
          "name": "_requestId",
          "type": "bytes16"
        },
        {
          "components": [
            {
              "internalType": "bytes",
              "name": "contentId",
              "type": "bytes"
            },
            {
              "components": [
                {
                  "internalType": "enum IEHRSystem.Role",
                  "name": "role",
                  "type": "uint8"
                },
                {
                  "internalType": "bytes",
                  "name": "encryptedKeyShare",
                  "type": "bytes"
                },
                {
                  "internalType": "bytes32",
                  "name": "ephemeralPublicKey",
                  "type": "bytes32"
                },
                {
                  "internalType": "bytes12",
                  "name": "nonce",
                  "type": "bytes12"
                },
                {
                  "internalType": "bytes16",
                  "name": "authTag",
                  "type": "bytes16"
                }
              ],
              "internalType": "struct IEHRSystem.EncryptedShare[5]",
              "name": "encryptedKeyShares",
              "type": "tuple[5]"
            },
            {
              "internalType": "bytes12",
              "name": "nonce",
              "type": "bytes12"
            },
            {
              "internalType": "bytes16",
              "name": "authTag",
              "type": "bytes16"
            }
          ],
          "internalType": "struct IEHRSystem.Record",
          "name": "_record",
          "type": "tuple"
        }
      ],
      "name": "requestOracleAssistance",
      "outputs": [],
      "stateMutability": "nonpayable",
      "type": "function"
    },
    {
      "inputs": [],
      "name": "revokePatient",
      "outputs": [],
      "stateMutability": "nonpayable",
      "type": "function"
    },
    {
      "inputs": [
        {
          "internalType": "address",
          "name": "physicianAddress",
          "type": "address"
        }
      ],
      "name": "revokePhysician",
      "outputs": [],
      "stateMutability": "nonpayable",
      "type": "function"
    },
    {
      "inputs": [
        {
          "internalType": "bytes16",
          "name": "_requestId",
          "type": "bytes16"
        },
        {
          "internalType": "bool",
          "name": "_isSuccess",
          "type": "bool"
        },
        {
          "components": [
            {
              "internalType": "enum IEHRSystem.Role",
              "name": "role",
              "type": "uint8"
            },
            {
              "internalType": "bytes",
              "name": "encryptedKeyShare",
              "type": "bytes"
            },
            {
              "internalType": "bytes32",
              "name": "ephemeralPublicKey",
              "type": "bytes32"
            },
            {
              "internalType": "bytes12",
              "name": "nonce",
              "type": "bytes12"
            },
            {
              "internalType": "bytes16",
              "name": "authTag",
              "type": "bytes16"
            }
          ],
          "internalType": "struct IEHRSystem.EncryptedShare[1]",
          "name": "_reEncryptedKeyShare",
          "type": "tuple[1]"
        }
      ],
      "name": "submitReEncryptedShare",
      "outputs": [],
      "stateMutability": "nonpayable",
      "type": "function"
    },
    {
      "inputs": [
        {
          "internalType": "address",
          "name": "newHospitalAddress",
          "type": "address"
        },
        {
          "internalType": "bytes32",
          "name": "publicKey",
          "type": "bytes32"
        }
      ],
      "name": "updateHospital",
      "outputs": [],
      "stateMutability": "nonpayable",
      "type": "function"
    },
    {
      "inputs": [
        {
          "internalType": "uint8",
          "name": "oracleIndex",
          "type": "uint8"
        },
        {
          "internalType": "bytes32",
          "name": "publicKey",
          "type": "bytes32"
        }
      ],
      "name": "updateOraclePubKey",
      "outputs": [],
      "stateMutability": "nonpayable",
      "type": "function"
    }
  ],
  "bytecode": "0x608060405234801561001057600080fd5b5060405161275238038061275283398101604081905261002f91610133565b82828260405180606001604052806000600381111561005057610050610161565b81526001602080830182905260409283018790523360009081526005909152919091208251815491929091839160ff199091169083600381111561009657610096610161565b021790555060208281015182549015156101000261ff0019909116178255604092830151600192830155600080546001600160a01b031916331790558251606080820185526003808352828401859052918501879052835461ffff19908116610103908117865560029890985585519182018652828252928101939093529190920183905280549091169092179091556004555061017792505050565b60008060006060848603121561014857600080fd5b5050815160208301516040909301519094929350919050565b634e487b7160e01b600052602160045260246000fd5b6125cc806101866000396000f3fe608060405234801561001057600080fd5b50600436106100ea5760003560e01c806394e89c161161008c578063cdc62d2811610066578063cdc62d2814610205578063db2a873714610218578063e6bbc1be1461022b578063ea297d5a1461023e57600080fd5b806394e89c16146101bf5780639c1438e8146101df578063a7c905e1146101f257600080fd5b806348b18cb8116100c857806348b18cb81461014d57806358214308146101605780635f019b88146101a45780636cbccf37146101b757600080fd5b80631569aaf9146100ef5780631f5309cc146101185780632f63bd6a1461012d575b600080fd5b6101026100fd366004611923565b610251565b60405161010f919061199f565b60405180910390f35b61012b6101263660046119ad565b61032a565b005b61014061013b3660046119ee565b610402565b60405161010f9190611a4f565b61012b61015b366004611b7a565b6106e9565b61018f61016e3660046119ee565b6001600160a01b031660009081526008602052604090205463ffffffff1690565b60405163ffffffff909116815260200161010f565b61012b6101b2366004611bca565b610929565b61012b610a60565b6101d26101cd366004611be3565b610b0d565b60405161010f9190611c16565b61012b6101ed3660046119ee565b610f28565b61012b610200366004611c64565b61103d565b610140610213366004611c80565b6111ef565b61012b610226366004611cc0565b6114b3565b61012b610239366004611cdc565b611673565b61012b61024c366004611c64565b6116c5565b610259611842565b60028260ff16106102b15760405162461bcd60e51b815260206004820152601b60248201527f4572726f723a20496e76616c6964206f7261636c6520696e646578000000000060448201526064015b60405180910390fd5b60018260ff16600281106102c7576102c7611d4a565b6040805160608101909152600291909102919091018054829060ff1660038111156102f4576102f4611945565b600381111561030557610305611945565b81528154610100900460ff161515602082015260019091015460409091015292915050565b6103346000611803565b801561034a57506000546001600160a01b031633145b6103665760405162461bcd60e51b81526004016102a890611d60565b8060008190036103885760405162461bcd60e51b81526004016102a890611daa565b60028360ff16106103db5760405162461bcd60e51b815260206004820152601b60248201527f4572726f723a20496e76616c6964206f7261636c6520696e646578000000000060448201526064016102a8565b8160018460ff16600281106103f2576103f2611d4a565b6002020160010181905550505050565b61040a611865565b6001600160a01b03821660009081526008602052604090205463ffffffff166104755760405162461bcd60e51b815260206004820152601760248201527f4572726f723a204e6f207265636f72647320666f756e6400000000000000000060448201526064016102a8565b6001600160a01b038216600090815260076020908152604080832060089092528220549091906104ad9060019063ffffffff16611df7565b63ffffffff1663ffffffff1681526020019081526020016000206040518060800160405290816000820180546104e290611e13565b80601f016020809104026020016040519081016040528092919081815260200182805461050e90611e13565b801561055b5780601f106105305761010080835404028352916020019161055b565b820191906000526020600020905b81548152906001019060200180831161053e57829003601f168201915b50505091835250506040805160a081019091526020909101906001830160056000835b828210156106a7576040805160a081019091526004830285018054829060ff1660038111156105af576105af611945565b60038111156105c0576105c0611945565b81526020016001820180546105d490611e13565b80601f016020809104026020016040519081016040528092919081815260200182805461060090611e13565b801561064d5780601f106106225761010080835404028352916020019161064d565b820191906000526020600020905b81548152906001019060200180831161063057829003601f168201915b5050509183525050600282015460208083019190915260039092015460a081901b6001600160a01b0319166040830152600160601b900460801b6001600160801b031916606090910152908252600192909201910161057e565b505050908252506015919091015460a081901b6001600160a01b0319166020830152600160601b900460801b6001600160801b03191660409091015292915050565b3360008181526006602052604090205460ff168061070f5750336001600160a01b038216145b6107815760405162461bcd60e51b815260206004820152603a60248201527f4e6f7420617574686f72697a65643a206d75737420626520612074727573746560448201527f642070687973696369616e206f72207468652070617469656e7400000000000060648201526084016102a8565b33600090815260056020526040902054610100900460ff166107f45760405162461bcd60e51b815260206004820152602660248201527f4e6f7420417574686f72697a65643a204e6f7420612072656769737465726564604482015265081859d95b9d60d21b60648201526084016102a8565b6107fc61187f565b6000805b60058110156108c95760036108186020870187611e47565b826005811061082957610829611d4a565b6020028101906108399190611e47565b610847906020810190611e74565b600381111561085857610858611945565b036108c15761086a6020860186611e47565b816005811061087b5761087b611d4a565b60200281019061088b9190611e47565b61089490611f22565b8383600281106108a6576108a6611d4a565b6020020152816108b581612001565b925050600282146108c9575b600101610800565b5033600090815260056020526040908190206001015490516001600160801b03198716907f310528107d4b07134b9219dcb2f426c0ea14a3f26e871bb5ec16d239fad8dd429061091a90869061201a565b60405180910390a35050505050565b80600081900361094b5760405162461bcd60e51b81526004016102a890611daa565b33600090815260056020526040902054610100900460ff16156109b05760405162461bcd60e51b815260206004820181905260248201527f4572726f723a2050617469656e7420616c7265616479206f6e626f617264656460448201526064016102a8565b604080516060810182526001808252602080830182905282840186905233600090815260059091529290922081518154929391929091839160ff1916908360038111156109ff576109ff611945565b021790555060208281015182549015156101000261ff001990911617825560409283015160019092019190915590513381527fa58cff07db0adda3ab7a40bd2f18ab57210bf38391a52ffd2e8eee6b8bdec71a910160405180910390a15050565b33600090815260056020526040902054610100900460ff168015610aa7575060013360009081526005602052604090205460ff166003811115610aa557610aa5611945565b145b610af35760405162461bcd60e51b815260206004820152601d60248201527f4572726f723a2050617469656e74206e6f74207265676973746572656400000060448201526064016102a8565b336000908152600560205260409020805461ff0019169055565b6001600160a01b038216600090815260056020526040902054606090610100900460ff168015610b69575060016001600160a01b03841660009081526005602052604090205460ff166003811115610b6757610b67611945565b145b610bb55760405162461bcd60e51b815260206004820152601e60248201527f4572726f723a20496e76616c69642070617469656e742061646472657373000060448201526064016102a8565b6001600160a01b038216600090815260056020526040902054610100900460ff168015610c0e575060026001600160a01b03831660009081526005602052604090205460ff166003811115610c0c57610c0c611945565b145b610c5a5760405162461bcd60e51b815260206004820181905260248201527f4572726f723a20496e76616c69642070687973696369616e206164647265737360448201526064016102a8565b60408051600580825260c08201909252600091816020015b610c7a611842565b815260200190600190039081610c725750506001600160a01b0384166000908152600560205260409081902081516060810190925280549293509091829060ff166003811115610ccc57610ccc611945565b6003811115610cdd57610cdd611945565b81528154610100900460ff161515602082015260019091015460409091015281518290600090610d0f57610d0f611d4a565b6020908102919091018101919091526001600160a01b038516600090815260059091526040908190208151606081019092528054829060ff166003811115610d5957610d59611945565b6003811115610d6a57610d6a611945565b81528154610100900460ff161515602082015260019182015460409091015282518391908110610d9c57610d9c611d4a565b602090810291909101810191909152600080546001600160a01b0316815260059091526040908190208151606081019092528054829060ff166003811115610de657610de6611945565b6003811115610df757610df7611945565b81528154610100900460ff1615156020820152600190910154604090910152815182906002908110610e2b57610e2b611d4a565b6020908102919091010152604080516060810190915260018054829060ff166003811115610e5b57610e5b611945565b6003811115610e6c57610e6c611945565b81528154610100900460ff1615156020820152600190910154604090910152815182906003908110610ea057610ea0611d4a565b6020908102919091010152604080516060810190915260038054829060ff1682811115610ecf57610ecf611945565b6003811115610ee057610ee0611945565b81528154610100900460ff1615156020820152600190910154604090910152815182906004908110610f1457610f14611d4a565b602090810291909101015290505b92915050565b610f326000611803565b8015610f4857506000546001600160a01b031633145b610f645760405162461bcd60e51b81526004016102a890611d60565b6001600160a01b038116600090815260056020526040902054610100900460ff168015610fbd575060026001600160a01b03821660009081526005602052604090205460ff166003811115610fbb57610fbb611945565b145b6110095760405162461bcd60e51b815260206004820152601f60248201527f4572726f723a2050687973696369616e206e6f7420726567697374657265640060448201526064016102a8565b6001600160a01b03166000908152600660209081526040808320805460ff1916905560059091529020805461ff0019169055565b6110476000611803565b801561105d57506000546001600160a01b031633145b6110795760405162461bcd60e51b81526004016102a890611d60565b80600081900361109b5760405162461bcd60e51b81526004016102a890611daa565b6001600160a01b038316600090815260056020526040902054610100900460ff16156111145760405162461bcd60e51b815260206004820152602260248201527f4572726f723a2050687973696369616e20616c7265616479206f6e626f617264604482015261195960f21b60648201526084016102a8565b6040805160608101825260028152600160208083018290528284018690526001600160a01b038716600090815260059091529290922081518154929391929091839160ff19169083600381111561116d5761116d611945565b021790555060208281015182549015156101000261ff00199091161782556040928301516001928301556001600160a01b038616600081815260068352849020805460ff191690931790925591519081527f0dc5d6293beaace4b5cc0ca7af2817a668ae37be73216ea1770d87e46c2e44dc91015b60405180910390a1505050565b6111f7611865565b6001600160a01b03831660009081526008602052604090205463ffffffff908116908316106112685760405162461bcd60e51b815260206004820152601c60248201527f4572726f723a20496e76616c6964207265636f7264206e756d6265720000000060448201526064016102a8565b6001600160a01b038316600090815260076020908152604080832063ffffffff86168452909152908190208151608081019092528054829082906112ab90611e13565b80601f01602080910402602001604051908101604052809291908181526020018280546112d790611e13565b80156113245780601f106112f957610100808354040283529160200191611324565b820191906000526020600020905b81548152906001019060200180831161130757829003601f168201915b50505091835250506040805160a081019091526020909101906001830160056000835b82821015611470576040805160a081019091526004830285018054829060ff16600381111561137857611378611945565b600381111561138957611389611945565b815260200160018201805461139d90611e13565b80601f01602080910402602001604051908101604052809291908181526020018280546113c990611e13565b80156114165780601f106113eb57610100808354040283529160200191611416565b820191906000526020600020905b8154815290600101906020018083116113f957829003601f168201915b5050509183525050600282015460208083019190915260039092015460a081901b6001600160a01b0319166040830152600160601b900460801b6001600160801b0319166060909101529082526001929092019101611347565b505050908252506015919091015460a081901b6001600160a01b0319166020830152600160601b900460801b6001600160801b0319166040909101529392505050565b3360009081526006602052604090205460ff1661152f5760405162461bcd60e51b815260206004820152603460248201527f4e6f7420617574686f72697a65643a2050687973696369616e206e6f742061756044820152731d1a1bdc9a5e995908189e481a1bdcdc1a5d185b60621b60648201526084016102a8565b6001600160a01b038216600090815260056020526040902054610100900460ff168015611588575060016001600160a01b03831660009081526005602052604090205460ff16600381111561158657611586611945565b145b6115e85760405162461bcd60e51b815260206004820152602b60248201527f4572726f723a204e6f74206120726567697374657265642070617469656e742060448201526a1a5b881a1bdcdc1a5d185b60aa1b60648201526084016102a8565b6001600160a01b0382166000908152600760209081526040808320600883528184205463ffffffff16845290915290208190611624828261232d565b50506001600160a01b0382166000908152600860205260408120805463ffffffff16916116508361242a565b91906101000a81548163ffffffff021916908363ffffffff160217905550505050565b826fffffffffffffffffffffffffffffffff19167f2d12167f7ea018a7c87eb4be1bd597540148684155da633ddbdfdc65d9e7940582846040516116b8929190612478565b60405180910390a2505050565b6116cf6000611803565b80156116e557506000546001600160a01b031633145b6117015760405162461bcd60e51b81526004016102a890611d60565b8060008190036117235760405162461bcd60e51b81526004016102a890611daa565b604080516060810182526000808252600160208084018290528385018790526001600160a01b03881683526005905292902081518154929391929091839160ff19169083600381111561177857611778611945565b021790555060208281015182549015156101000261ff0019918216178355604093840151600190930192909255600080546001600160a01b0388166001600160a01b0319909116811782553382526005835290849020805490931690925591519081527f9ea7d26d57d6d9ff3b8eb857789ea1b095a875a449cfbfcb31343e73449a696991016111e2565b600081600381111561181757611817611945565b3360009081526005602052604090205460ff16600381111561183b5761183b611945565b1492915050565b60408051606081019091528060005b815260006020820181905260409091015290565b6040518060800160405280606081526020016118516118cc565b60405180604001604052806002905b6040805160a08101825260008082526060602080840182905293830182905282018190526080820152825260001990920191018161188e5790505090565b604080516101408101909152600060a08201818152606060c084015260e083018290526101008301829052610120830191909152815260046020820161188e565b803560ff8116811461191e57600080fd5b919050565b60006020828403121561193557600080fd5b61193e8261190d565b9392505050565b634e487b7160e01b600052602160045260246000fd5b6004811061197957634e487b7160e01b600052602160045260246000fd5b9052565b61198882825161195b565b602081810151151590830152604090810151910152565b60608101610f22828461197d565b600080604083850312156119c057600080fd5b6119c98361190d565b946020939093013593505050565b80356001600160a01b038116811461191e57600080fd5b600060208284031215611a0057600080fd5b61193e826119d7565b6000815180845260005b81811015611a2f57602081850181015186830182015201611a13565b506000602082860101526020601f19601f83011685010191505092915050565b602081526000825160806020840152611a6b60a0840182611a09565b6020850151848203601f190160408601529091508160a0810160005b6005811015611b055784820383528351611aa283825161195b565b602081015160a06020850152611abb60a0850182611a09565b604083810151908601526060808401516001600160a01b031916908601526080928301516001600160801b0319169290940191909152506020938401939290920191600101611a87565b5060408701516001600160a01b031981166060880152935060608701516001600160801b03198116608088015293509695505050505050565b6001600160801b031981168114611b5457600080fd5b50565b803561191e81611b3e565b600060808284031215611b7457600080fd5b50919050565b60008060408385031215611b8d57600080fd5b8235611b9881611b3e565b9150602083013567ffffffffffffffff811115611bb457600080fd5b611bc085828601611b62565b9150509250929050565b600060208284031215611bdc57600080fd5b5035919050565b60008060408385031215611bf657600080fd5b611bff836119d7565b9150611c0d602084016119d7565b90509250929050565b602080825282518282018190526000918401906040840190835b81811015611c5957611c4383855161197d565b6020939093019260609290920191600101611c30565b509095945050505050565b60008060408385031215611c7757600080fd5b6119c9836119d7565b60008060408385031215611c9357600080fd5b611c9c836119d7565b9150602083013563ffffffff81168114611cb557600080fd5b809150509250929050565b60008060408385031215611cd357600080fd5b611b98836119d7565b600080600060608486031215611cf157600080fd5b8335611cfc81611b3e565b925060208401358015158114611d1157600080fd5b9150604084013567ffffffffffffffff811115611d2d57600080fd5b840160208101861015611d3f57600080fd5b809150509250925092565b634e487b7160e01b600052603260045260246000fd5b6020808252602a908201527f4e6f7420617574686f72697a65643a2043616c6c6572206973206e6f7420746860408201526919481a1bdcdc1a5d185b60b21b606082015260800190565b6020808252601e908201527f4572726f723a20496e76616c69642045444348207075626c6963206b65790000604082015260600190565b634e487b7160e01b600052601160045260246000fd5b63ffffffff8281168282160390811115610f2257610f22611de1565b600181811c90821680611e2757607f821691505b602082108103611b7457634e487b7160e01b600052602260045260246000fd5b60008235609e19833603018112611e5d57600080fd5b9190910192915050565b60048110611b5457600080fd5b600060208284031215611e8657600080fd5b813561193e81611e67565b634e487b7160e01b600052604160045260246000fd5b60405160a0810167ffffffffffffffff81118282101715611eca57611eca611e91565b60405290565b604051601f8201601f1916810167ffffffffffffffff81118282101715611ef957611ef9611e91565b604052919050565b6001600160a01b031981168114611b5457600080fd5b803561191e81611f01565b600060a08236031215611f3457600080fd5b611f3c611ea7565b8235611f4781611e67565b8152602083013567ffffffffffffffff811115611f6357600080fd5b830136601f820112611f7457600080fd5b803567ffffffffffffffff811115611f8e57611f8e611e91565b611fa1601f8201601f1916602001611ed0565b818152366020838501011115611fb657600080fd5b8160208401602083013760006020928201830152908301525060408381013590820152611fe560608401611f17565b6060820152611ff660808401611b57565b608082015292915050565b60006001820161201357612013611de1565b5060010190565b60208082526000906060830190830184835b60028110156120ae57601f19868503018352815161204b85825161195b565b602081015160a0602087015261206460a0870182611a09565b604083810151908801526060808401516001600160a01b031916908801526080928301516001600160801b031916929096019190915250602092830192919091019060010161202c565b509195945050505050565b6000808335601e198436030181126120d057600080fd5b83018035915067ffffffffffffffff8211156120eb57600080fd5b60200191503681900382131561210057600080fd5b9250929050565b601f82111561215157806000526020600020601f840160051c8101602085101561212e5750805b601f840160051c820191505b8181101561214e576000815560010161213a565b50505b505050565b60008135610f2281611f01565b60008135610f2281611b3e565b818160005b600581101561214e576121888386611e47565b803561219381611e67565b600481106121b157634e487b7160e01b600052602160045260246000fd5b60ff1984541660ff8216811785555050600183016121d260208301836120b9565b67ffffffffffffffff8111156121ea576121ea611e91565b6121fe816121f88554611e13565b85612107565b6000601f821160018114612232576000831561221a5750838201355b600019600385901b1c1916600184901b17855561228c565b600085815260209020601f19841690835b828110156122635786850135825560209485019460019092019101612243565b50848210156122805760001960f88660031b161c19848701351681555b505060018360011b0185555b505050505060408101356002840155600383016122ca6122ae60608401612156565b82546bffffffffffffffffffffffff191660a09190911c178255565b6123156122d960808401612163565b8280546fffffffffffffffffffffffffffffffff60601b191660209290921c6fffffffffffffffffffffffffffffffff60601b16919091179055565b50506020929092019160049190910190600101612175565b61233782836120b9565b67ffffffffffffffff81111561234f5761234f611e91565b61235d816121f88554611e13565b6000601f82116001811461239157600083156123795750838201355b600019600385901b1c1916600184901b1785556123eb565b600085815260209020601f19841690835b828110156123c257868501358255602094850194600190920191016123a2565b50848210156123df5760001960f88660031b161c19848701351681555b505060018360011b0185555b505050506124086123ff6020840184611e47565b60018301612170565b6015810161241b6122ae60408501612156565b6121516122d960608501612163565b600063ffffffff821663ffffffff810361244657612446611de1565b60010192915050565b81835281816020850137506000828201602090810191909152601f909101601f19169091010190565b604080825260009060608301908301858336829003609e19015b600182101561258357868503603f1901845282358181126124b257600080fd5b890180356124bf81611e67565b6124c9878261195b565b506020810135601e198236030181126124e157600080fd5b810160208101903567ffffffffffffffff8111156124fe57600080fd5b80360382131561250d57600080fd5b60a0602089015261252260a08901828461244f565b604084810135908a0152915061253c905060608301611f17565b6001600160a01b031916606088015261255760808301611b57565b6001600160801b0319811660808901529150955050602093840193929092019160019190910190612492565b505050508315156020840152905061193e56fea2646970667358221220efe70b7cf30f4b3cb6c1ab9e8cb561df81c42ed2da39b57495b251eacf635d6464736f6c634300081d0033",
  "linkReferences": {},
  "deployedLinkReferences": {}
}